S021000074696D65725F6672657175656E63795F67656E65726174696F6E2E733337F6
S113000000800020F5010000210200002102000010
S11300102102000021020000210200002102000050
S11300202102000021020000210200002102000040
S11300302102000020020000210200002102000031
S11300402102000021020000210200002102000020
S11300502102000021020000210200002102000010
S11300602102000021020000210200002102000000
S113007021020000210200002102000021020000F0
S113008021020000210200002102000021020000E0
S113009021020000210200002102000021020000D0
S11300A021020000210200002102000021020000C0
S11300B021020000210200002102000021020000B0
S11300C021020000210200002102000021020000A0
S11300D02102000021020000210200002102000090
S11300E02102000021020000210200002102000080
S11300F02102000021020000210200002102000070
S1130100210200002102000021020000210200005F
S1130110210200002102000021020000210200004F
S1130120210200002102000021020000210200003F
S1130130210200002102000021020000210200002F
S113014010B5054C237833B9044B13B1044800E0CF
S113015000BF0123237010BD7800002000000000C0
S1130160500B000008B5034B1BB10349034800E0E2
S113017000BF08BD000000007C000020500B000000
S1130180154B002B08BF134B9D46A3F5803A002165
S11301908B460F461348144A121A00F0C1FC0F4B49
S11301A0002B00D098470E4B002B00D0984700201E
S11301B0002104000D000D48002802D00C4800E086
S11301C000BF00F089FC2000290000F03DFC00F095
S11301D06FFC00BF00000800008000200000000049
S11301E000000000780000209400002000000000BF
S11301F000000000064880470649074A074B9A4218
S1130200BEBF51F8040B42F8040BF8E7FFF7B8FF40
S1130210250200005C0B0000000000207800002094
S1130220FEE700BF044B054A9A60D3F8882042F4E5
S11302307002C3F88820704700ED00E00000000061
S1130240094B1B6F03F00703022B09D0032B04D0C7
S1130250012B00D0FEE705487047054B186870472E
S1130260044B1868704700BF00800040002D310126
S113027008000020040000200D4B1B6F03F007034F
S1130280022B12D0032B0DD0012B00D0FEE7094B1B
S11302900749094A086FC0F303300130B3FBF0F09B
S11302A010607047054B1B68F2E7054B1B68EFE7CE
S11302B000800040002D31010000002008000020D3
S11302C004000020014B1868704700BF080000209C
S11302D0014B1868704700BF0400002000207047DD
S11302E000487047002D31014FF40040704700BFB3
S11302F04FF47A70704700BF014B1868704700BF15
S11303000C00002038B5104B0546D3F820310C46BC
S113031003F00303022B12D0032B0CD0012B06D0C5
S11303200023184605B1286004B1237038BDFFF7D7
S1130330CFFF0523F6E7FFF7D3FF0223F2E7FFF72A
S1130340C1FF0323EEE700BF00800040002370B527
S11303500F4A82B00193D2F88041064604F00304A8
S1130360012C0D460DD0022C09D1FFF7B9FF0190E5
S11303700EB1019B336005B12C7002B070BD1C46F8
S1130380F6E7194601A8FFF7BDFF0D24F0E700BF0B
S11303900080004038B5174B0546D3F824310C468D
S11303A003F00703013B052B20D8DFE803F00B0F14
S11303B013171B03FFF786FF042305B1286004B15C
S11303C0237038BDFFF784FF0523F6E7FFF77AFFB4
S11303D00323F2E7FFF784FF0223EEE7FFF77EFF34
S11303E00723EAE7FFF774FF0623E6E7002318462E
S11303F0E3E700BF0080004038B5104B0546D3F852
S113040040310C4603F00303022B12D0032B0CD013
S1130410012B06D00023184605B1286004B12370CF
S113042038BDFFF761FF0923F6E7FFF761FF0A23F1
S1130430F2E7FFF761FF0823EEE700BF008000400A
S113044038B5134B0546D3F800320C4603F00703C6
S1130450013B032B18D8DFE803F00F130B02FFF75F
S11304600BFF0C23800A05B1286004B1237038BD4A
S1130470FFF73EFF0A23F6E7FFF736FF0923F2E70B
S1130480FFF73AFF0823EEE700231846EBE700BF27
S11304900080004038B5104B0546D3F840320C4676
S11304A003F00303022B12D0032B0CD0012B06D034
S11304B00023184605B1286004B1237038BDFFF746
S11304C013FF0923F6E7FFF713FF0A23F2E7FFF709
S11304D013FF0823EEE700BF0080004038B5104B3F
S11304E00546D3F860310C4603F00303022B12D007
S11304F0032B0CD0012B06D00023184605B128602D
S113050004B1237038BDFFF7EFFE0923F6E7FFF7C8
S1130510EFFE0A23F2E7FFF7EFFE0823EEE700BF42
S1130520008000400B4BD3F8203203F00303012B6F
S11305300ED0022B0AD010B40A4608B1002303607F
S11305400AB1002313705DF8044B7047FFF754BFE2
S1130550FFF7D8BE00800040430909D100F01F0016
S113056019BB012203F5005302FA00F0186070472A
S1130570012B15D010B4104A104C00F01F00022BB0
S113058014BF2346134641B903F50053012202FA6E
S113059000F018605DF8044B704703F58053F5E7ED
S11305A0074B00F01F000029DBD0012203F5805324
S11305B002FA00F0186070476880004060820040D2
S11305C064800040002300B53E2883B0019353D0DB
S11305D018D9B0F5007F7CD027D9B0F5A06F45D0ED
S11305E02DD9B0F5D06F00F08A8069D9B0F5E06FED
S11305F042D0B0F5F06F2CD101A80021FFF76EFFB7
S1130600019819E02B2843D04DD9312823D93C280F
S1130610F2D83A287ED2382828D0392819D101A80E
S11306200021FFF7B7FE019806E0522842D06CD9AA
S113063080287DD1FFF704FE03B05DF804FBB0F51C
S1130640607F51D01ED9B0F5806F33D0B0F5906F74
S1130650E5D00020F0E72F285CD22D284FD017D802
S113066001A80021FFF7C8FE0198E5E701A80021D1
S1130670FFF758FF0198DFE701A80021FFF70AFF01
S11306800198D9E7B0F5207F44D0B0F5407FE0D1A0
S1130690FFF7F2FD344B1B6FC3F380230133B0FB30
S11306A0F3F04008C8E7232834D04BD929280AD8C6
S11306B028282FD201A80021FFF724FE0198BBE7C8
S11306C0B0F5B06F30D101A80021FFF73FFE0198CB
S11306D0B2E7FFF7B5FD244BD3F89030C3F30463BE
S11306E00133B0FBF3F0A7E7FFF7AAFD1E4BD3F8E5
S11306F08030C3F301130133B0FBF3F09CE701A88E
S11307000021FFF79DFE019896E74D2817D028D8C1
S11307103F289ED1FFF7B0FD134B1B6FC3F380231B
S11307200133B0FBF3F087E7B0F5C06F98D090E7E2
S113073013D9B0F5807F93D0B0F5C07F89D1FFF78E
S11307409BFD79E72028FAD004D92128E2D0222879
S1130750F5D07EE70028F2D07BE760380128EED997
S113076077E74F28EBD274E700800040F0B4A2BBD7
S1130770440025182D0107294FF00F0C05F1804581
S11307801BD805F570356E688F000CFA07FC26EA55
S11307900C0602FA07F73E436E6062B9012202FAC0
S11307A001F15BBB42F210030444240104F18044D0
S11307B004F57034E150F0BC704701F1804605F552
S11307C07035083EEF68B6000CFA06FC27EA0C0701
S11307D002FA06F63E43EE60DFE701268E4053B987
S11307E042F21007440025182D0105F1804505F556
S11307F07035EE51BDE741F21007F3E741F2100303
S1130800D2E700BF30B402E003695B0602D5036B94
S1130810DA07F9D442F2300201250B794C881B0225
S113082043EA84434C7A85504A7823430AB143F01F
S113083040038A7A0AB143F08003CA7A0AB143F0CA
S113084020030A7B0AB143F010034A7B0AB143F048
S113085008038A790AB143F4803341F23002012556
S1130860CC7943600B7A85500A7843EA840349794A
S113087042B90224C460426281B130BC43F0100327
S1130880836070470022426221B983600123C36000
S113089030BC704743F010038360F7E78360F7E7E9
S11308A0F0B402E003695B0602D5036BDC07F9D4FC
S11308B0D479537A002C0CBF00264FF48016002BF9
S11308C00CBF0025102542F2300C01249379D77A0D
S11308D040F80C4043EAC74333432B43167A00EBFA
S11308E041152B662B6E26B3167B224F43EA4643F3
S11308F02B66B842937836D007F58047B8420DD0BE
S11309001D4CA04231D004F58044A0422FD004F500
S11309108044A04214BF4FF0FF340424012E04EBA2
S11309204404164E01EB440108BF1B0246F8213073
S113093000E02B6641F230040126537811781B063F
S113094043EA8163D1780651107943EA013351793E
S1130950927A43EA802343EA01230AB143F0040371
S11309606B66F0BC70470024D8E70224D6E7032462
S1130970D4E700BF00800440000005400C81034020
S113098008B501213A20FFF7E7FDBDE80840012141
S11309902420FFF7E1BD00BF032110B50846002362
S11309A00422FFF7E3FE4FF00312084C0023C4F8BF
S11309B08025022104220320FFF7D8FE0323044AE2
S11309C0C4F88425C4F87C3510BD00BF00C00340C2
S11309D00300020070B50024194D88B004A928460C
S11309E00126CDE904440694ADF81C40FFF70AFF44
S11309F0022321466A462846CDE9004402948DF834
S1130A0006308DF80C408DF80560FFF749FF6A4603
S1130A10314628468DF80A60FFF742FF2420FFF78D
S1130A20D1FDBDF81230074A3344B0FBF3F3A2FB07
S1130A3003232A6BDB09013BEB6108B070BD00BFE7
S1130A4000800440D34D621008B5144B1B68C3F3F7
S1130A500743012B0FD0FFF793FFFFF79DFFFFF72D
S1130A60B9FF01210E4B0F4AD960136923F0040327
S1130A70136130BFF9E70C4B4FF48022596E41F2F9
S1130A80640549034FF0040458BF42F26401074867
S1130A905A51046058BF5A50DDE700BF0080E00F90
S1130AA00080044000ED00E0008000402020014070
S1130AB008B5074B044613B1002100E000BF054B05
S1130AC01868836A03B19847204600F031F800BFE4
S1130AD0000000004C0B000070B50D4E00250D4CBD
S1130AE0A41BA410A54209D10B4E00250B4C00F009
S1130AF021F8A41BA410A54205D170BD56F82530D9
S1130B0001359847EEE756F8253001359847F2E766
S1130B10700000207000002070000020740000208D
S1130B2002440346934200D1704703F8011BF9E7DE
S1130B30FEE700BFF8B500BFF8BC08BC9E4670478E
S1130B40F8B500BFF8BC08BC9E46704710000020F2
S1070B50000000009D
S10B0B542CF6FF7F01000000F4
S1130B5CC0EA2101C0EA210100F049020080000032
S1130B6C0000000000000000000000000000000075
S1130B7C0000000000000000000000000000000065
S1130B8C0000000000000000000000000000000055
S1130B9C0000000000000000000000000000000045
S1130BAC0000000000000000000000000000000035
S1130BBC0000000000000000000000000000000025
S10B0BCC650100004101000075
S90301F506
